:1000000012C074C3BAC3E9C229C028C027C026C021
:1000100025C0B2C023C022C021C020C01FC01EC046
:100020001DC01CC01BC011241FBECFE5D4E0DEBF25
:10003000CDBF10E0A0E6B0E0E4ECF7E002C0059030
:100040000D92A637B107D9F720E0A6E7B0E001C0CE
:100050001D92AC38B207E1F7A6D2B2C3D1CFBA9A9B
:1000600084B38F6384BB81B3836E81BBC298909845
:10007000AC98959889B7816089BF83B7846083BF46
:1000800083B78C7F83BF0895EF92FF920F931F93E6
:10009000CF93DF93DC0120E030E07D01EC91EA308A
:1000A00008F5A901B90160587F4FC9018C579F4FCE
:1000B000EC01888190E001978C0122F40027112740
:1000C000081B190B079500270795F0E0EE59FF4F25
:1000D0008081080FFB010083E7018881FA01E8575E
:1000E000FF4F80832F5F3F4F119624303105A9F6D3
:1000F000DF91CF911F910F91FF90EF90089570E0E5
:10010000FB01E857FF4F808390E0DB01A058BF4F11
:10011000FC01EC57FF4F2081279522272795FC01F2
:10012000EE59FF4F9081822F890F8C930895282FCD
:1001300030E0F901EC57FF4F9081913029F4F9013B
:10014000EC57FF4F108205C091E0F901EC57FF4FCB
:100150009083F901E857FF4F6081D1DF0895282F80
:1001600030E0F901EC57FF4F91E09083F901E85737
:10017000FF4F6081C4DF08951F920F920FB60F9258
:1001800011242F933F934F935F936F937F938F939C
:100190009F93AF93BF93CF93DF93EF93FF93959884
:1001A000AC989098C298E0917600EF5FE43018F434
:1001B000E093760002C010927600E0917600F0E0C5
:1001C000E058FF4FE081E6FBFF27F0F9CF2FF0E08A
:1001D000DF2FE6FD02C0A99803C0219709F4A99A70
:1001E000E0917600F0E0E058FF4FE081E5FBAA27C0
:1001F000A0F9B0E0E5FD02C0AD9803C0119709F485
:10020000AD9AE0917600F0E0E058FF4FE081E4FB2A
:10021000662760F970E0E4FD02C0919804C0613087
:10022000710509F4919AE0917600F0E0E058FF4FF3
:10023000608163FB442740F950E063FD02C0AA9847
:1002400004C04130510509F4AA9AE0917600F0E02B
:10025000E058FF4F408142FB222720F930E042FD69
:1002600002C0A89804C02130310509F4A89AE09191
:100270007600F0E0E058FF4F208121FB882780F9CD
:1002800090E021FD02C0AB9803C0019709F4AB9A3E
:10029000E0917600F0E0E058FF4F808180FD02C0E1
:1002A000969801C0969AE0917600F0E0E058FF4FF2
:1002B0008081881F8827881F11F4979803C0813098
:1002C00009F4979A80917600813039F028F08230D5
:1002D00029F0833021F004C0959AAC9A909AC29A82
:1002E000FF91EF91DF91CF91BF91AF919F918F914E
:1002F0007F916F915F914F913F912F910F900FBE22
:100300000F901F9018958FB583688FBD8EB588614B
:100310008EBD08958EB585608EBD08958EB58A7F99
:100320008EBD089580917B00811144C08091600052
:100330008130C9F410926000E7E7F0E08AE0808342
:10034000818390917C008DEC989F812D112486955E
:10035000869586958283880F282F220F220F820F81
:10036000981B938300C181E08093600020917D0001
:10037000E7E7F0E08DEC289F912D11249695969556
:1003800096959083990F392F330F330F930F291BB5
:10039000218390917C00989F812D112486958695CC
:1003A00086958283880F282F220F220F820F981B99
:1003B0009383D9C0813009F044C0809160008130BE
:1003C000C9F41092600090917D00E7E7F0E08DECB9
:1003D000989F812D11248695869586958083880F18
:1003E000282F220F220F820F981B91838AE082838D
:1003F0008383B9C081E08093600020917D00E7E7AE
:10040000F0E08DEC289F912D112496959695969568
:100410009083990F392F330F330F930F291B2183AB
:1004200090917C00989F812D1124869586958695C4
:100430008283880F282F220F220F820F981B93830D
:1004400092C08230C9F58AE0809377009091610074
:10045000943621F481E08093780005C08AE080938F
:1004600078009B30B0F08DEC989F212D11242695BB
:1004700026952695289F812D11248695869586950B
:10048000880F382F330F330F830F281B20937900E9
:1004900003C08AE0809379008DEC989F812D112410
:1004A000869586958695880F282F220F220F820F1A
:1004B000981B90937A0057C08330E9F520917D0016
:1004C000E7E7F0E08DEC289F912D11249695969505
:1004D00096959083990F392F330F330F930F291B64
:1004E000218390917C00989F812D1124869586957B
:1004F00086958283880F282F220F220F820F981B48
:10050000938381E014DE80917C00882321F0815068
:1005100080937C0028C080917D00882339F0815031
:1005200080937D008BE380937C001DC0F7DE84E028
:1005300080937B0018C08430B1F490916000292F23
:10054000220F822F880F880F820FE7E7F0E0808369
:10055000818382838383911104C081E08093600052
:1005600002C01092600087E790E08EDD0895CF937F
:10057000DF93EC01D3DEC198DBBDCABDCBDEDF91DA
:10058000CF91089514BC10927F0010927E0085B523
:10059000886085BD8DE783BD89B7806889BF85B5D3
:1005A000876085BD089587B3836087BB81B3837EF1
:1005B00081BBC19881B3837E81BB85B78A6085BFCB
:1005C0008BB7806C8BBF78944ADD9DDEDBDF87E7DD
:1005D00090E05ADD81E0C3DDFFCF1F920F920FB68E
:1005E0000F9211242F933F934F935F936F937F93B9
:1005F0008F939F93AF93BF93EF93FF9380917E0070
:1006000090917F0001968D37910529F090937F009E
:1006100080937E0005C010927F0010927E0082DEE3
:10062000FF91EF91BF91AF919F918F917F916F91CA
:100630005F914F913F912F910F900FBE0F901F90A0
:10064000189580917B0081110BC080917D008F5F98
:100650008C3318F480937D00089510927D000895E6
:10066000813059F480917C008F5F8C3318F4809333
:100670007C00089510927C000895823051F480919E
:1006800061008F5F853618F48093610008951092A1
:100690006100089580917B0081110CC080917D00E4
:1006A000811104C08BE380937D0008958150809375
:1006B0007D000895813061F480917C00811104C037
:1006C0008BE380937C000895815080937C00089593
:1006D000823059F480916100811104C084E68093D6
:1006E0006100089581508093610008951F920F92D8
:1006F0000FB60F9211242F933F934F935F936F93F5
:100700007F938F939F93AF93BF93EF93FF93849BBC
:1007100002C097DF01C0BEDFFF91EF91BF91AF91A3
:100720009F918F917F916F915F914F913F912F9109
:100730000F900FBE0F901F90189580917B00811134
:1007400004C081E080937B000895813021F482E031
:1007500080937B000895823079F483E080937B005E
:10076000209161008FE892E0AC01249FC001259F99
:10077000900D1124FCDECEDD08951F920F920FB66E
:100780000F9211242F933F934F935F936F937F9317
:100790008F939F93AF93BF93EF93FF93CEDFFF9120
:1007A000EF91BF91AF919F918F917F916F915F91E9
:1007B0004F913F912F910F900FBE0F901F90189562
:0407C000F894FFCFDB
:1007C400016481CF9286CCA4A08F8084FF000000B6
:0607D4000000000000001F
:00000001FF
