S012000055565F4578706F7365722E7372656322
S113000012C027C262C414C529C028C027C026C094
S113001025C07FC023C022C021C020C01FC01EC075
S11300201DC01CC01BC011241FBECFE5D4E0DEBF21
S1130030CDBF10E0A0E6B0E0E4E4FEE002C005902D
S11300400D92AA37B107D9F720E0AAE7B0E001C0C2
S11300501D92A239B207E1F753D1F2C6D1CFBA9AB1
S113006084B38F6384BB81B3836E81BBC298909841
S1130070AC98959889B7816089BF83B7846083BF42
S11300800895CF93DF93DC0120E030E0EC91EB3076
S1130090B8F4A90140585F4FC9018C579F4FEC0138
S11300A08881879588278795F0E0EB59FF4F9081E9
S11300B0890FFA0180838C91F901E857FF4F8083FF
S11300C02F5F3F4F11962430310501F7DF91CF9117
S11300D0089590E0FC01EC57FF4F2081222329F082
S11300E0FC01EC57FF4F10820895FC01EC57FF4FC1
S11300F021E020830895E82FF0E0EC57FF4F81E0E2
S113010080830895E4E8F0E0108211821282138261
S113011008951F920F920FB60F9211242F933F93BD
S11301204F935F936F937F938F939F93AF93BF93FB
S1130130CF93DF93EF93FF939598AC989098C298E0
S1130140E0917A00EF5FE43018F4E0937A0002C0A3
S113015010927A00E0917A00F0E0E058FF4FE081DD
S1130160E6FBFF27F0F9CF2FF0E0DF2FE6FD02C01A
S1130170A99803C0219709F4A99AE0917A00F0E0C4
S1130180E058FF4FE081E5FBAA27A0F9B0E0E5FDC8
S113019002C0AD9803C0119709F4AD9AE0917A00BA
S11301A0F0E0E058FF4FE081E4FB662760F970E07F
S11301B0E4FD02C0919804C06130710509F4919A7C
S11301C0E0917A00F0E0E058FF4F608163FB442740
S11301D040F950E063FD02C0AA9804C041305105C3
S11301E009F4AA9AE0917A00F0E0E058FF4F4081C8
S11301F042FB222720F930E042FD02C0A89804C047
S11302002130310509F4A89AE0917A00F0E0E05831
S1130210FF4F208121FB882780F990E021FD02C057
S1130220AB9803C0019709F4AB9AE0917A00F0E02F
S1130230E058FF4F808180FD02C0969801C0969AD5
S1130240E0917A00F0E0E058FF4F8081881F882712
S1130250881F11F4979803C0813009F4979A80910C
S11302607A00813041F028F0823039F0833039F05F
S113027007C0959A05C0AC9A03C0909A01C0C29A6F
S1130280FF91EF91DF91CF91BF91AF919F918F91AA
S11302907F916F915F914F913F912F910F900FBE7E
S11302A00F901F9018958FB582688FBD8EB58861A9
S11302B08EBD8FEF9FEF97BD86BD08951DBC1CBCFE
S11302C08FB580688FBD8EB581608EBD08958EB563
S11302D0887F8EBD8FB58F778FBDC198089514BC6C
S11302E010927F0010927E0085B5886085BD8DE7F1
S11302F083BD89B7806889BF85B5876085BD08954A
S113030087B3836087BB81B3837E81BBC19885B784
S1130310866085BF8BB7806C8BBFA1DE80E690E0E2
S1130320B0DE81E0E8DE7894BEDFD9DF2FEF81EE26
S113033094E0215080409040E1F700C000001FBAD3
S11303401EBAE09A8DB380939100843610F0109217
S113035091008091910080938F0081E090E09FBB99
S11303608EBBE09A8DB380938E008C3310F0109284
S11303708E0080918E008093900082E090E09FBB7D
S11303808EBBE09A8DB380938D00853618F084E699
S113039080938D0080918D0080938C00FFCF85B574
S11303A0887F85BD9CDF089580917D0081110BC0FD
S11303B0809191008F5F843618F4809391000895A2
S11303C0109291000895813059F480918E008F5FCE
S11303D08C3318F480938E00089510928E00089543
S11303E0823051F480918D008F5F853618F48093AC
S11303F08D00089510928D00089580917D008111E3
S11304000CC080919100811104C083E68093910017
S113041008958150809391000895813061F4809112
S11304208E00811104C08BE380938E000895815067
S113043080938E000895823059F480918D0081114B
S113044004C084E680938D000895815080938D00CC
S113045008951F920F920FB60F9211242F933F937A
S11304604F935F936F937F938F939F93AF93BF93B8
S1130470EF93FF93849B02C0C0DF01C095DFFF911F
S1130480EF91BF91AF919F918F917F916F915F9108
S11304904F913F912F910F900FBE0F901F90189581
S11304A0009731F02AE12A95F1F700C00197D1F7BE
S11304B008957F928F929F92AF92BF92CF92DF92D4
S11304C0EF92FF920F931F93CF93DF93EB01BC0145
S11304D080E090E090D36B017C01BE0180E090E06D
S11304E08AD320E030E04AEF54E43BD4A7019601DC
S11304F038D420E034E244E759E4E9D24B015C010A
S113050020E030E0A90129D418162CF5A7019601A2
S113051060E070E583EC97E4DAD241D38B01C12C1F
S1130520D12C7601C0E0712CD1E0C11103C0C09A76
S1130530CD2F02C0C098C72DC801B2DF8FEFC81AF3
S1130540D80AE80AF80AC701B60155D3A5019401EF
S1130550BAD2882354F3C098DF91CF911F910F91A1
S1130560FF90EF90DF90CF90BF90AF909F908F90CF
S11305707F90089580917C008823A9F18F5F8093F8
S11305807C008A3180F162E370E087EB97E091DFD1
S113059062E370E088E497E08CDF62E370E088EB6C
S11305A096E087DF2FEF80E792E021508040904073
S11305B0E1F700C0000062E370E086E194E079DFD7
S11305C062E370E084EA93E074DF62E370E086E162
S11305D094E06FDF99E088E10FB6F894A89581BDA7
S11305E00FBE91BDFFCF90917B009F5F90937B00E6
S11305F0993139F410927B0080917D00882339F081
S1130600C8C080917D00811140C09530B8F4E0E607
S1130610F0E08AE08083818390918E008DEC989F36
S1130620812D11248695869586958283880F282F9F
S1130630220F220F820F981B938323C020919100D5
S1130640E0E6F0E08DEC289F912D11249695969587
S113065096959083990F392F330F330F930F291BDE
S1130660218390918E00989F812D112486958695E3
S113067086958283880F282F220F220F820F981BC2
S1130680938380E690E0FDDC0895813009F042C058
S113069080917B008530B8F490919100E0E6F0E021
S11306A08DEC989F812D112486958695869580835F
S11306B0880F282F220F220F820F981B91838AE024
S11306C08283838323C020919100E0E6F0E08DECE7
S11306D0289F912D11249695969596959083990F20
S11306E0392F330F330F930F291B218390918E00E1
S11306F0989F812D11248695869586958283880FEF
S1130700282F220F220F820F981B938380E690E0FC
S1130710B8DC0895823009F040C08AE0809360001C
S113072090918D00943621F481E08093610005C09E
S11307308AE0809361009A30B0F08DEC989F212D6F
S11307401124269526952695289F812D112486957A
S113075086958695880F382F330F330F830F281B08
S11307602093620003C08AE0809362008DEC989F1E
S1130770812D1124869586958695880F282F220F22
S1130780220F820F981B9093630080E690E079DC3F
S11307900895813009F0BECF7FCF089567E370E0FC
S11307A080ED97E086DE80E58A95F1F76CE370E0F2
S11307B080ED97E07EDE85E38A95F1F7000067E33C
S11307C070E08CE19CE075DE66E470E084E59BE01B
S11307D070DE61E470E08CE19CE06BDE8AE18A9576
S11307E0F1F700C06CE370E080ED97E062DE0895FD
S11307F0CF93DF9310927C0080917D00811114C00F
S113080081E080937D0090918F00809191009817F2
S113081009F458C0E199FECF1FBA1EBA8091910025
S11308208DBBE29AE19A4EC08130C9F46BDC8091B1
S11308307D008F5F80937D009091900080918E0069
S1130840981709F43FC0E199FECF81E090E09FBB87
S11308508EBB80918E008DBBE29AE19A33C08230C8
S113086031F590918C0080918D00981759F0E199A1
S1130870FECF82E090E09FBB8EBB80918D008DBB4C
S1130880E29AE19A80917D008F5F80937D0086DFFC
S113089086DD20918D008FE892E0289FE001299F5A
S11308A0D00D112414DDDBBDCABD08DD0BC08430BE
S11308B049F499E088E10FB6F894A89581BD0FBE7C
S11308C091BDFFCFDF91CF9108951F920F920FB684
S11308D00F9211242F933F934F935F936F937F93C2
S11308E08F939F93AF93BF93EF93FF93839B02C028
S11308F07FDF03C081E080937C00FF91EF91BF9183
S1130900AF919F918F917F916F915F914F913F91A3
S11309102F910F900FBE0F901F90189566E470E012
S113092080ED97E0C6DD6EE670E084E398E0C1DD1B
S113093060E570E08CE19CE0BCDD8AE68A95F1F725
S113094000C062E370E080EF9AE0B3DD0895809127
S11309507D00833009F04DC080918E00882321F002
S1130960815080938E0012C080919100882339F0C9
S11309708150809391008BE380938E0007C0A7DCA5
S1130980CDDF1092640084E080937D0081E0A1DBE0
S1130990209191002A3050F08DEC289F812D112454
S11309A08695869586958093600003C08AE080933F
S11309B06000E0E6F0E08DEC289F912D11249695DF
S11309C096959695990F392F330F330F930F291B53
S11309D0218390918E00989F812D11248695869570
S11309E086958283880F282F220F220F820F981B4F
S11309F0938380917D008430B9F484DB909164000A
S1130A00292F220F822F880F880F820FE0E6F0E053
S1130A108083818382838383992319F010926400F5
S1130A2003C081E08093640080E690E02ADB0895AF
S1130A301F920F920FB60F9211242F933F934F934F
S1130A405F936F937F938F939F93AF93BF93EF9332
S1130A50FF9340917E0050917F004F5F5F4F509312
S1130A607F0040937E009A01ADECBCECDDD19695FD
S1130A708795969587959C01220F331F220F331F6C
S1130A80820F931F4817590709F474DD80917E0083
S1130A9090917F008C37910528F010927F0010927E
S1130AA07E0055DFFF91EF91BF91AF919F918F91A0
S1130AB07F916F915F914F913F912F910F900FBE56
S1130AC00F901F901895D4D008F481E008950CD0AD
S1130AD00AC102D140F0F9D030F021F45F3F19F09F
S1130AE0EBC0511134C1EEC00FD198F39923C9F36F
S1130AF05523B1F3951B550BBB27AA276217730720
S1130B00840738F09F5F5F4F220F331F441FAA1FD3
S1130B10A9F333D00E2E3AF0E0E830D09150504093
S1130B20E695001CCAF729D0FE2F27D0660F771F41
S1130B30881FBB1F261737074807AB07B0E809F023
S1130B40BB0B802DBF01FF2793585F4F2AF09E3FB8
S1130B50510568F0B1C0FBC05F3FECF3983EDCF395
S1130B60869577956795B795F7959F5FC9F7880F31
S1130B70911D9695879597F90895E1E0660F771F83
S1130B80881FBB1F621773078407BA0720F0621B14
S1130B90730B840BBA0BEE1F88F7E0950895BCD055
S1130BA088F09F5790F0B92F9927B751A0F0D1F052
S1130BB0660F771F881F991F1AF0BA95C9F712C0DC
S1130BC0B13081F0C3D0B1E00895C0C0672F782F51
S1130BD08827B85F39F0B93FCCF386957795679548
S1130BE0B395D9F73EF490958095709561957F4FB4
S1130BF08F4F9F4F0895E89409C097FB3EF490955A
S1130C008095709561957F4F8F4F9F4F9923A9F0E1
S1130C10F92F96E9BB279395F69587957795679570
S1130C20B795F111F8CFFAF4BB0F11F460FF1BC0B4
S1130C306F5F7F4F8F4F9F4F16C0882311F096E947
S1130C4011C0772321F09EE8872F762F05C06623F5
S1130C5071F096E8862F70E060E02AF09A95660FAE
S1130C60771F881FDAF7880F9695879597F9089567
S1130C70990F0008550FAA0BE0E8FEEF16161706A9
S1130C80E807F907C0F012161306E407F50798F011
S1130C90621B730B840B950B39F40A2661F0232B2A
S1130CA0242B252B21F408950A2609F4A140A695A6
S1130CB08FEF811D811D089597F99F6780E870E08B
S1130CC060E008959FEF80EC089500240A941616BE
S1130CD0170618060906089500240A941216130626
S1130CE0140605060895092E0394000C11F48823B4
S1130CF052F0BB0F40F4BF2B11F460FF04C06F5FD0
S1130D007F4F8F4F9F4F089557FD9058440F551FA5
S1130D1059F05F3F71F04795880F97FB991F61F079
S1130D209F3F79F087950895121613061406551FF0
S1130D30F2CF4695F1DF08C0161617061806991F5C
S1130D40F1CF86957105610508940895E894BB2751
S1130D5066277727CB0197F908958ADF08F48FEF88
S1130D6008950BD0C0CFB1DF28F0B6DF18F095237B
S1130D7009F0A2CFA7CF1124EACFC6DFA0F3959F35
S1130D80D1F3950F50E0551F629FF001729FBB276E
S1130D90F00DB11D639FAA27F00DB11DAA1F649F1A
S1130DA06627B00DA11D661F829F2227B00DA11DCD
S1130DB0621F739FB00DA11D621F839FA00D611D53
S1130DC0221F749F3327A00D611D231F849F600D74
S1130DD0211D822F762F6A2F11249F5750408AF0AD
S1130DE0E1F088234AF0EE0FFF1FBB1F661F771F39
S1130DF0881F91505040A9F79E3F510570F05CCF79
S1130E00A6CF5F3FECF3983EDCF386957795679524
S1130E10B795F795E7959F5FC1F7FE2B880F911D56
S1130E209695879597F90895A29FB001B39FC00145
S1130E30A39F01D0B29F700D811D1124911D0895AF
S1070E40F894FFCF50
S1130E440A0A0A0A0181CF9286CCA4A08F8084FF67
S10D0E540000000000000000000090
S9030000FC
